:020000040800F2
:10000000981000202D020008350200081503000892
:10001000390200083B0200083D0200080000000011
:100020000000000000000000000000003F02000887
:10003000410200080000000097020008ED220008BD
:10004000470200084702000847020008470200086C
:100050004702000847020008D308000821090008E9
:10006000330900084509000857090008470200083D
:10007000470200084702000847020008470200083C
:10008000470200084702000847020008470200082C
:1000900047020008470200084702000869090008F3
:1000A000470200084702000847020008470200080C
:1000B00047020008470200084702000847020008FC
:1000C00047020008470200084702000847020008EC
:1000D00047020008C9280008470200084702000834
:1000E000E508000847020008470200084702000828
:1000F00047020008470200084702000847020008BC
:1001000047020008470200084702000847020008AB
:10011000470200084702000847020008470200089B
:10012000470200084702000847020008470200088B
:1001300000F002F800F063F80AA090E8000C824496
:100140008344AAF10107DA4501D100F058F8AFF273
:10015000090EBAE80F0013F0010F18BFFB1A43F0A5
:100160000103184774DE000094DE00000A444FF0DB
:10017000000C10F8013B13F0070408BF10F8014B06
:100180001D1108BF10F8015B641E05D010F8016B4B
:10019000641E01F8016BF9D113F0080F1EBF10F8AF
:1001A000014BAD1C0C1B09D16D1E58BF01F801CBD2
:1001B000FAD505E014F8016B01F8016B6D1EF9D555
:1001C0009142D6D37047000000230024002500266A
:1001D000103A28BF78C1FBD8520728BF30C148BFAA
:1001E0000B6070471FB500F067FA04000020002183
:1001F0000CF072FC401C60601FBD10B510BD00F01B
:100200001FFB1146FFF7EEFF00F048FB00F03DFB3F
:1002100003B4FFF7F2FF03BC03F0B0FD002804D0E5
:1002200090FAA0F0B0FA80F0401C7047094880476F
:1002300009480047FEE7FEE7FEE7FEE7FEE7FEE7C8
:10024000FEE7FEE7FEE7FEE704480549034A054BE3
:10025000704700005524000831010008980C002068
:1002600098100020980C0020EFF3108072B67047B1
:1002700080F310887047344A1368012B04D04FF084
:1002800001031360314A1060314A116031484FF068
:10029000805101607047EFF3108272B62A480168FE
:1002A00091B14FF0000101602848016829B1EFF3D6
:1002B000098121E9F00F0068016025490968096892
:1002C000B1E8F00F81F3098882F310884EF0040E34
:1002D00070471F4908601D494FF0000008601A4927
:1002E0004FF0010008601C481C49D0F8002041EA8A
:1002F0000201016017484FF0805101601848006802
:10030000006880F3088861B662B6BFF34F8FBFF311
:100310006F8F70471EF0040F0CBFEFF30880EFF3F0
:10032000098020E9F00F40F804ED1EF0040F0CBF27
:1003300080F3088880F3098800B507F0F1FD5DF8C7
:1003400004EB4EF0040E7047EC030020E4030020A1
:10035000E803002004ED00E020ED00E00000FFFFD6
:1003600008ED00E07047000010B500F0A5F9001D91
:1003700010BD00BF65C7000070B5064600F0A0F9CB
:100380000468054630460A22002100F0ECF92C6092
:1003900070BD2DE9F05F93460F4680460446002667
:1003A00000F08EF9D0F80090824614F8015B2DB170
:1003B000FFF7DAFF0068405DC007F6D12B2D02D0B1
:1003C0002D2D1AD0641E0021CAF800105A46394655
:1003D000204600F079F9014627B13868A04201D1E2
:1003E000C7F80080DAF80000022809D0CAF80090A7
:1003F000700505D54842BDE8F09F46F48066E2E707
:100400000846F8E7401ECAB210F8011F8A4202D01F
:100410000029F9D10020704740EA010310B59B077D
:100420000FD1042A0DD310C808C9121F9C42F8D05E
:1004300020BA19BA884201D9012010BD4FF0FF300F
:1004400010BD1AB1D30703D0521C07E0002010BD25
:1004500010F8013B11F8014B1B1B07D110F8013BB1
:1004600011F8014B1B1B01D1921EF1D1184610BD92
:1004700040EA0103024630B59B0710D14FF001342A
:1004800000E008C208C91D1B9D4315EAC41FF8D02F
:1004900013F0FF0102F8011B0DD01B0AF8E711F859
:1004A000013B002B02F8013B05D011F8013B002B6A
:1004B00002F8013BF3D130BD10B5431C02E010F847
:1004C000011B71B18107FAD14FF0013202C88C1AB9
:1004D0008C4314EAC211F9D0C01A0A0603D0C01E18
:1004E00010BDC01A10BD0A0401D0801E10BD090243
:1004F000FCD0401E10BD40EA010370B59B072ED111
:100500004FF00136042A2AD308C810C99D1B9D4309
:10051000121F15EAC61517D0D8B2E1B2401A50EA38
:10052000056110D198B2A1B2401A50EA05410AD132
:1005300023F07F4024F07F41401A50EA052102D188
:10054000180EA0EB146070BDA342DBD018BA21BA1C
:10055000884201D9012070BD4FF0FF3070BD0AB94B
:10056000002070BD10F8013B11F8014B63B1A342AC
:100570000AD1521E08D010F8013B11F8014B1BB1F3
:10058000A34201D1521EEDD1181B70BD4FF00002E5
:1005900000B5134694469646203922BFA0E80C5079
:1005A000A0E80C50B1F12001BFF4F7AF090728BF54
:1005B000A0E80C5048BF0CC05DF804EB890028BFD0
:1005C00040F8042B08BF704748BF20F8022B11F0F9
:1005D000804F18BF00F8012B704710B5044610F08B
:1005E000030F08BF11F0030F40F015804FF0013EDC
:1005F000121FC0F20E8051F8043BA3EB0E0C2CEA44
:10060000030C1CEACE1C08BF40F8043BF0D0A1F15B
:10061000040102F10402521E08DB11F8013B002B19
:1006200000F8013BF7D1114600F0D5F8204610BD87
:100630004FF0013C50F8042B51F8043B9A4221D171
:10064000A2EB0C03934313EACC1317D150F8042BFD
:1006500051F8043B9A4215D1A2EB0C03934313EAE1
:10066000CC130BD150F8042B51F8043B9A4209D11A
:10067000A2EB0C03934313EACC13DBD04FF0000042
:10068000704700BFD01A01BAB1FA81F101F0180128
:1006900022FA01F0CB40C1F12001DBB2C0B2C01A96
:1006A0002CFA01F3D11A914311EAC311E6D1704734
:1006B000704770477047000000487047580C002092
:1006C00000487047380C00202DE9F05F824615463F
:1006D0008B4600270AF10104B9460078302801D082
:1006E0009DB113E014F8010B0127782803D0582896
:1006F00001D045B10AE00DB1102D07D1002714F843
:10070000010B102502E0082500E00A250026B0466E
:100710000EE005FB080005FB06F101271FFA80F833
:1007200001EB1046B6F5803F00D3B94614F8010B33
:10073000294600F077F80028EBDABBF1000F05D06E
:100740000FB1641E00E05446CBF80040B9F1000F31
:1007500006D0FFF7B5FF02210160C81EBDE8F09F7B
:1007600048EA0640FAE72DE9F04791460F468046F1
:100770000446002614F8015B2DB1FFF7F5FD006873
:10078000405DC007F6D12B2D02D02D2D18D0641E50
:100790004A4639462046FFF797FF27B13968A142FC
:1007A00001D1C7F800804FF0020471050BD540421B
:1007B000002803DDFFF784FF0460A007BDE8F08791
:1007C00046F48066E4E70028F8DAFFF779FF046072
:1007D0006FF00040F2E74FF000020429C0F01280F1
:1007E00010F0030C3FF4D4AECCF1040CBCF1020FBA
:1007F00018BF00F8012BA8BF20F8022BA1EB0C01B9
:10080000FFF7C6BE5FEAC17C24BF00F8012B00F8E9
:10081000012B48BF00F8012B7047000000487047CB
:10082000380C00203A2800D2303820F02002412A2B
:1008300001D3A2F13700884201D34FF0FF30704757
:100840007546FFF7EBFFAE4605006946534620F0BC
:100850000700854618B020B5FFF7F6FCBDE820403C
:100860004FF000064FF000074FF000084FF0000B6C
:1008700021F00701AC46ACE8C009ACE8C009ACE81F
:10088000C009ACE8C0098D46704710B50446AFF307
:1008900000802046BDE81040FFF7BABC10B50BF051
:1008A000DFF9002010BD30B590F840500124AC4075
:1008B000C56B6C60046863604468102C04D10468E4
:1008C000A2600468E16003E00468A1600468E2607B
:1008D00030BD10B507F09AFE012000F0F7FA07F0DE
:1008E000B7FE10BD10B507F091FE4FF4806000F028
:1008F000EDFA4FF4006000F0E9FA4FF4805000F098
:10090000E5FA4FF4005000F0E1FA4FF4804000F0B7
:10091000DDFA4FF4004000F0D9FA07F099FE10BD5F
:1009200010B507F073FE022000F0D0FA07F090FE39
:1009300010BD10B507F06AFE042000F0C7FA07F0FA
:1009400087FE10BD10B507F061FE082000F0BEFA6A
:1009500007F07EFE10BD10B507F058FE102000F025
:10096000B5FA07F075FE10BD10B507F04FFE202058
:1009700000F0ACFA402000F0A9FA802000F0A6FABE
:100980004FF4807000F0A2FA4FF4007000F09EFA6D
:1009900007F05EFE10BD0146002291F821000228FA
:1009A00008D00420886300BF002081F8200000BF29
:1009B000012070470868006820F00E000B6818607E
:1009C0000868006820F001000B68186091F840305A
:1009D00001209840CB6B5860012081F8210000BFB6
:1009E000002081F8200000BF1046E2E770B5044601
:1009F000002594F82100022803D00420A0630125DB
:100A0000C1E02068006820F00E00216808602068BE
:100A1000006820F00100216808605C492068884275
:100A200052D95A4978392068884201D1012047E0DB
:100A3000564964392068884201D1102040E053496A
:100A400050392068884201D1801539E04F493C393E
:100A50002068884201D1801432E04C49283920684E
:100A6000884202D14FF480302AE048491439206886
:100A7000884202D14FF4801022E044492068884225
:100A800001D140041CE042492068884201D1012084
:100A900016E03F4914312068884201D110200FE050
:100AA0003B4928312068884201D1801508E0384947
:100AB0003C312068884201D1801401E04FF480303D
:100AC0003349091F086051E030497839206888426D
:100AD00001D1012047E02D4964392068884201D1C5
:100AE000102040E0294950392068884201D1801502
:100AF00039E026493C392068884201D1801432E02F
:100B0000224928392068884202D14FF480302AE0F7
:100B10001E4914392068884202D14FF4801022E027
:100B20001A492068884201D140041CE01849206815
:100B3000884201D1012016E015491431206888420D
:100B400001D110200FE0124928312068884201D1DC
:100B5000801508E00E493C312068884201D180149C
:100B600001E04FF48030094980394860012084F861
:100B7000210000BF002084F8200000BF606B10B18E
:100B80002046616B8847284670BD00008000024007
:100B900008040240014609B901207047086800684E
:100BA00020F001000A68106000200A6810600A68DE
:100BB00050600A6890600A68D060174A08689042DE
:100BC0000BD2164A0868801A1422B0FBF2F080009B
:100BD000086412480838C8630AE00F4A0868801A97
:100BE0001422B0FBF2F0800008640B480838C86398
:100BF00091F8402001209040CA6B5060002088622C
:100C0000C86208634863886381F8210000BF81F8E7
:100C1000200000BF00BFC0E70804024008000240F7
:100C20000146002209B9012070471E4B086898420E
:100C30000BD21D4B0868C01A1423B0FBF3F08000E0
:100C4000086419480838C8630AE0164B0868C01AD7
:100C50001423B0FBF3F08000086412480838C8631E
:100C6000022081F821000868026843F6F070824390
:100C7000D1E901031843CB6818430B6918434B694A
:100C800018438B691843CB69184302430868026014
:100C900000208863012081F82100002081F82000D5
:100CA00000BFC1E708040240080002402DE9F041FE
:100CB00004460D4616461F464FF0000800BF94F844
:100CC0002000012802D10220BDE8F081012084F833
:100CD000200000BF94F8210001282CD1022084F8C4
:100CE00021000020A0632068006820F00100216836
:100CF00008603B46324629462046FFF7D4FDE06AAD
:100D000030B12068006840F00E00216808600BE0F8
:100D10002068006820F004002168086020680068EE
:100D200040F00A00216808602068006840F0010077
:100D30002168086006E000BF002084F8200000BFA2
:100D40004FF002084046BFE72DE9F04102460B464E
:100D500000208BE00127874007EA030100297DD0AE
:100D6000464F4FEA900C57F82C4087074FEA177C04
:100D70000F2707FA0CF73C40414FBA4201D1002738
:100D800019E0404FBA4201D1012714E03E4FBA4268
:100D900001D102270FE03D4FBA4201D103270AE0FB
:100DA0003B4FBA4201D1042705E03A4FBA4201D184
:100DB000052700E006274FEA807C4FEA1C7C07FAF3
:100DC0000CF7A74230D187074FEA177C0F2707FAA5
:100DD0000CF42A4F4FEA900C57F82C70A743DFF819
:100DE0009CC04FEA90084CF828702B4F3F688F4307
:100DF000DFF8A4C0CCF800700CF104073F688F4303
:100E00000CF1040CCCF800700CF104073F688F4320
:100E10000CF1040CCCF800700CF104073F688F4310
:100E20000CF1040CCCF80070FF2901D8174600E043
:100E3000171D3D46FF2901D8870002E0A0F10807F1
:100E4000BF003E462F684FF00F0C0CFA06FC27EA55
:100E50000C074FF0040C0CFA06FC00E005E047EA32
:100E60000C072F60D7688F43D760401C23FA00F728
:100E7000002F7FF46FAFBDE8F08100000800014053
:100E800000080140000C0140001001400014014026
:100E900000180140001C01400004014070B50546E7
:100EA000284603F001FB0446074800EB0410806865
:100EB00040B1054A02EB0412D068034A02EB041267
:100EC0009168884700BF70BD0C00002010B5044633
:100ED00004480068204020B1024804602046FFF723
:100EE000DDFF10BD140401402DE9F8470246002340
:100EF0009C467BE14FF0010808FA03F4D1F800802A
:100F000008EA0400A0427DD1DFF8F4A2D1F8048001
:100F1000A8EB0A09D0453AD014DCB8F1030F50D041
:100F200009DCB8F1000F31D0B8F1010F1CD0B8F1D5
:100F3000020F49D120E0B8F1110F18D0B8F1120F0B
:100F400042D11EE0B9F5881F25D006DCB9F5803FF7
:100F500020D0B9F5801F37D11AE0B9F5001F18D09D
:100F6000B9F5041F30D117E0D1F80CC02DE0D1F84D
:100F70000C8008F1040C28E0D1F80C8008F1080C72
:100F800023E0D1F80C8008F10C0C1EE000BF00BF7C
:100F900000BF00BF00BF00BFD1F80880B8F1000F4C
:100FA00002D14FF0040C0BE0D1F80880B8F1010F2A
:100FB00003D14FF0080C146102E04FF0080C5461AB
:100FC00003E04FF0000C00E000BF00BFFF2801D895
:100FD000904601E002F104084646FF2802D84FEA95
:100FE000830803E0A3F108084FEA88084746D6F8CB
:100FF00000804FF00F0909FA07F928EA09080CFAEE
:1010000007F900E07AE048EA0908C6F80080D1F85C
:10101000048008F08058B8F1805F6FD100BFDFF81E
:10102000E481D8F8188048F00108DFF8D891C9F8B1
:101030001880C846D8F8188008F00108CDF800805C
:1010400000BF00BF4FEAB9384FEA930958F829505A
:101050004FEA83784FEA18794FF00F0808FA09F839
:1010600025EA0805DFF8A081424502D14FF00008CB
:1010700024E0DFF89881424502D14FF001081DE0DD
:10108000DFF88C81424502D14FF0020816E0DFF80C
:101090008481424502D14FF003080FE0DFF87881E8
:1010A000424502D14FF0040808E0DFF87081424564
:1010B00002D14FF0050801E04FF006084FEA8379AE
:1010C0004FEA197908FA09F848EA0505DFF850816E
:1010D0004FEA930948F82950D1F8048008F4803881
:1010E000B8F5803F0BD1DFF83C81D8F8008048EAA2
:1010F0000008DFF83091C9F800800AE075E0DFF8F9
:101100002481D8F8008028EA0008DFF81891C9F88F
:101110000080D1F8048008F40038B8F5003F0ED103
:10112000DFF8008108F10408D8F8008048EA0008D8
:10113000DFF8F09009F10409C9F800800DE0DFF84C
:10114000E48008F10408D8F8008028EA0008DFF8F5
:10115000D49009F10409C9F80080D1F8048008F49A
:101160008018B8F5801F0ED1DFF8B88008F10808A4
:10117000D8F8008048EA0008DFF8A89009F10809CB
:10118000C9F800800DE0DFF89C8008F10808D8F865
:10119000008028EA0008DFF88C9009F10809C9F8F6
:1011A0000080D1F8048008F40018B8F5001F0ED1B3
:1011B000DFF8708008F10C08D8F8008048EA0008D1
:1011C000DFF8609009F10C09C9F800800DE0DFF844
:1011D000548008F10C08D8F8008028EA0008DFF8ED
:1011E000449009F10C09C9F800805B1CD1F800801B
:1011F00028FA03F8B8F1000F7FF47CAEBDE8F88759
:10120000000011100010024000080140000C0140D5
:10121000001001400014014000180140001C014072
:101220000800014000040140024693680B400BB1E6
:10123000012000E0002070470AB1016101E00B04C9
:101240000361704700B54FF0E020006900F4803082
:1012500008B100F005F80148006800BDF80300205F
:101260000348006803490968084401490860704759
:10127000F80300202401002010B50848006840F061
:10128000100006490860032000F0AAF80F2000F0C3
:1012900007F800F00BF8002010BD0000002002400D
:1012A00010B5044607F014F9002010BD08B500BFC2
:1012B0001148806940F001000F4988610846806943
:1012C00000F00100009000BF00BF00BF0846C069E9
:1012D00040F08050C8610846C06900F0805000901E
:1012E00000BF00BF00BF0549486820F0E06040F043
:1012F0000070486000BF08BD0010024000000140BF
:1013000010B501460846002817DB00F01F03012234
:101310009A400B4B440943F8242000BF00BF00BF94
:10132000BFF34F8F00BF00BF00BF00BF00BF00BFB3
:10133000BFF36F8F00BF00BF00BF00BF10BD000034
:1013400080E100E001460846002809DB00F01F03A9
:1013500001229A4043099B0003F1E023C3F80021D6
:1013600000BF70472DE9F05F80460D461646002706
:1013700001F0E8FA074639462A46334601F00700ED
:10138000C0F1070ABAF1040F02D94FF0040A01E0D4
:10139000C0F1070AD14600F1040ABAF1070F02D2E0
:1013A0004FF0000A01E0A0F1030AD4464FF0010A11
:1013B0000AFA09FAAAF1010A0AEA020A0AFA0CFA76
:1013C0004FF0010B0BFA0CFBABF1010B0BEA030B1B
:1013D0004AEA0B042146404601F0BCFABDE8F09F02
:1013E00000BF00F00702064B19684FF6FF031940D3
:1013F000044B0B4343EA0221014B196000BF7047C5
:101400000CED00E00000FA05F8B5044600260025C2
:10141000207800F0010000286BD000274348C06905
:1014200000F0805070B900BF4048C06940F0805063
:101430003E49C8610846C06900F08050009000BF76
:1014400000BF01273A48006800F48070B0B93848FE
:10145000006840F4807036490860FFF7F3FE0646E6
:1014600006E0FFF7EFFE801B642801D90320F8BDDA
:101470002F48006800F480700028F2D02B48006AE2
:1014800000F440752DB3A08800F44070A84220D02D
:101490002648006A20F44075012026490860002093
:1014A00008602248056205F0010090B1FFF7CAFE0E
:1014B000064608E0FFF7C6FE801B41F288318842ED
:1014C00001D90320D3E71948006A00F00200002880
:1014D000F0D01648006A20F4407061680843134950
:1014E0000862012F04D10846C06920F08050C8610D
:1014F00000BF207800F00200022807D10B484068A6
:1015000020F44040A168084308494860207800F072
:101510001000102807D10548406820F48000616958
:101520000843024948600020A1E700000010024083
:10153000007000404004424270B504460D460CB9AC
:10154000012070BD5A48006800F00700A8420ED282
:101550005748006820F007002843554908600846AE
:10156000006800F00700A84201D00120E9E72078D8
:1015700000F0020002281DD1207800F004000428A9
:1015800005D14C48406840F4E0604A494860207802
:1015900000F00800082805D14648406840F4605033
:1015A000444948604348406820F0F000A16808437F
:1015B00040494860207800F0010078B36068012855
:1015C00006D13C48006800F4003090B90120B8E72B
:1015D0006068022806D13748006800F0007040B902
:1015E0000120AEE73348006800F0020008B901208E
:1015F000A7E73048406820F00300616808432D49A0
:101600004860FFF71FFE064609E0FFF71BFE801B40
:1016100041F28831884202D9032092E707E0254849
:10162000406800F00C006168B0EB810FEDD12048FC
:10163000006800F00700A8420ED91D48006820F09D
:10164000070028431A4908600846006800F00700B0
:10165000A84201D0012074E7207800F0040004289B
:1016600007D11448406820F4E060E168084311495C
:101670004860207800F00800082808D10D4840682C
:1016800020F46050216940EAC1000A49486000F036
:101690003FF808494968C1F30311074A515CC84043
:1016A0000649086006480068FFF7FAFD002048E791
:1016B000002002400010024094D60008F4030020ED
:1016C000FC0300200148006870470000F40300207C
:1016D00000B5FFF7F7FF04494968C1F30221034A47
:1016E000515CC84000BD000000100240A4D60008B4
:1016F00000B5FFF7E7FF04494968C1F3C221034A77
:10170000515CC84000BD000000100240A4D6000893
:10171000F0B585B00FF26C0C9CE8E01001A8A0E8D1
:10172000E0101CA52D680095002100220023002454
:101730000020194D696801F00C05F5B1042D02D0A7
:10174000082D19D101E0154819E001ADC1F3834618
:10175000AC5D01F4803555B10F4D6D68C5F3404562
:101760001DF805200D4D6543B5FBF2F302E00C4D6D
:1017700004FB05F3184602E000BF084800BF00BFA5
:1017800005B0F0BD02030405060708090A0B0C0D9D
:101790000E0F1010010200000010024000127A002B
:1017A00000093D00F8B504460CB90120F8BD2078C9
:1017B00000F00100002878D0F848406800F00C00E4
:1017C00004280CD0F548406800F00C00082811D11E
:1017D000F248406800F48030B0F5803F0AD1EF480D
:1017E000006800F4003000285FD0606800285CD1F9
:1017F0000120DBE700BF6068B0F5803F06D1E74815
:10180000006840F48030E549086028E0606858B915
:10181000E248006820F48030E0490860084600682B
:1018200020F4802008601AE06068B0F5A02F0BD18A
:10183000DA48006840F48020D8490860084600680B
:1018400040F4803008600AE0D448006820F480301A
:10185000D24908600846006820F48020086000BF74
:10186000606888B1FFF7EEFC054606E0FFF7EAFC8A
:10187000401B642801D9032098E7C848006800F499
:1018800000300028F2D010E0FFF7DCFC054606E04F
:10189000FFF7D8FC401B642801D9032086E7BF4826
:1018A000006800F400300028F2D1207800F0020037
:1018B000022857D1B948406800F00C0050B1B74831
:1018C000406800F00C00082818D1B448406800F4C3
:1018D000803098B9B148006800F0020020B120695A
:1018E000012801D0012061E7AC48006820F0F80031
:1018F000616940EAC100A949086033E02069E8B1A4
:101900000120A7490860FFF79DFC054606E0FFF7A8
:1019100099FC401B022801D9032047E79F48006833
:1019200000F002000028F2D09C48006820F0F80087
:10193000616940EAC1009949086013E000209849B4
:101940000860FFF77FFC054606E0FFF77BFC401BC5
:10195000022801D9032029E79048006800F002001E
:101960000028F2D1207800F0080008282DD1A069C5
:10197000B8B101208B490860FFF764FC054606E01A
:10198000FFF760FC401B022801D903200EE78348C3
:10199000406A00F002000028F2D0012000F092FC22
:1019A00013E000207F490860FFF74CFC054606E085
:1019B000FFF748FC401B022801D90320F6E67748D0
:1019C000406A00F002000028F2D1207800F0040004
:1019D000042873D100277148C06900F0805070B9A5
:1019E00000BF6E48C06940F080506C49C86108462D
:1019F000C06900F08050009000BF00BF01276A4816
:101A0000006800F48070B0B96748006840F48070E6
:101A100065490860FFF716FC054606E0FFF712FC73
:101A2000401B642801D90320C0E65F48006800F429
:101A300080700028F2D000BFE068012806D1574826
:101A4000006A40F001005549086227E0E06858B993
:101A50005248006A20F00100504908620846006AB6
:101A600020F00400086219E0E06805280BD14B481B
:101A7000006A40F00400494908620846006A40F0E4
:101A8000010008620AE04548006A20F0010043496D
:101A900008620846006A20F00400086200BFE0689F
:101AA000A0B1FFF7CFFB054609E0FFF7CBFB401BDA
:101AB00041F28831884202D9032077E622E0374894
:101AC000006A00F002000028EFD012E0FFF7BAFB36
:101AD000054608E0FFF7B6FB401B41F2883188421B
:101AE00001D9032062E62D48006A00F002000028B8
:101AF000F0D1012F05D12948C06920F08050274935
:101B0000C86100BFE069C8B32448406800F00C0019
:101B1000082860D0E069022848D1002020490866E2
:101B2000FFF790FB054606E0FFF78CFB401B022801
:101B300001D903203AE61948006800F00070002837
:101B4000F2D1206AB0F5803F07D11448406820F4F4
:101B50000030A168084311494860D4E908010843EE
:101B60000E49496821F4741108430C49486001206A
:101B70000B490866FFF766FB054607E03DE0FFF707
:101B800061FB401B022801D903200FE603480068CF
:101B900000F000700028F2D02FE00000001002409A
:101BA000000042428004424200700040002014497C
:101BB0000866FFF747FB054606E0FFF743FB401BBF
:101BC000022801D90320F1E50E48006800F00070FA
:101BD0000028F2D111E0E069012800D1E6E50948CA
:101BE000466806F48031206A814204D106F47011FF
:101BF000606A814201D00120D8E50020D6E50000CE
:101C0000000042420010024070B504462546681E9E
:101C1000B0F1807F01D301200FE0681E4FF0E0217A
:101C200048610F214FF0FF3000F094FE00204FF08C
:101C3000E021886107200861002070BD704710B561
:101C400004460CB9012010BD242084F83D00206812
:101C5000C06820F400502168C860204600F084F974
:101C60000020206484F83D0084F83E00206300BF1B
:101C700084F83C0000BF00BFE5E7000070B50446F3
:101C80002CB940F27A42034903A004F089FE2546AC
:101C900070BD00000ECF0008687561727420213D90
:101CA000204E554C4C0000002DE9F84F04462068AA
:101CB00005682068C668206847694FF00009CA4671
:101CC00005F00F09B9F1000F0AD105F0200038B175
:101CD00006F0200020B1204600F08AFCBDE8F88F15
:101CE000B9F1000F71D007F0010018B906F4907037
:101CF00000286AD005F0010030B106F4807018B1F8
:101D0000206C40F00100206405F0040030B107F0C1
:101D1000010018B1206C40F00200206405F00200C0
:101D200030B107F0010018B1206C40F004002064CD
:101D300005F0080048B106F0200010B907F00100D6
:101D400018B1206C40F008002064206C68B305F0E6
:101D5000200028B106F0200010B1204600F048FC19
:101D600020684069C0F3801A206C00F0080010B9A8
:101D7000BAF1000F22D0204600F005FC206840692F
:101D800000F04000B0B12068406920F040002168B8
:101D90004861A06B50B15648A16B4863A06BFEF739
:101DA00025FE10B1A06B416B88470CE02046FFF781
:101DB00065FF08E02046FFF761FF04E02046FFF7DB
:101DC0005DFF0020206489E7FFE7206B012878D1C0
:101DD00005F01000002874D006F01000002870D024
:101DE00000BF0020009020680068009020684068D4
:101DF000009000BF00BF2068406900F04000C0B301
:101E0000A06B006840681FFA80F8B8F1000F2FD06F
:101E1000A08D40452CDDA4F82E80A06B8069202881
:101E20001FD02068C06820F480702168C8602068D6
:101E3000406920F00100216848612068406920F075
:101E4000400021684861202084F83E000020206383
:101E50002068C06820F010002168C860A06BFEF701
:101E60009AFDA08DE28D801A81B22046FFF7E6FE32
:101E700034E7FFE7A08DE18D401A1FFA80F8E08D6E
:101E8000E8B1B8F1000F1AD02068C06820F4907053
:101E90002168C8602068406920F00100216848611D
:101EA000202084F83E00002020632068C06820F0D5
:101EB00010002168C86041462046FFF7BFFE0DE7CD
:101EC000FFE705F0800030B106F0800018B1204631
:101ED00000F0CAFC02E705F0400030B106F0400017
:101EE00018B1204600F06AFBF8E600BFF6E60000F5
:101EF0005724000810B504460CB9012010BDA06994
:101F000000B100E000BF94F83D0028B9002084F83B
:101F10003C00204600F066F8242084F83D0020684C
:101F2000C06820F400502168C860204600F0D2FB51
:101F30002068006920F490402168086120684069A9
:101F400020F02A00216848612068C06840F40050F1
:101F50002168C86000202064202084F83D0084F8B7
:101F60003E000020CAE7000010B50446174920686B
:101F700088420BD11648806920F48040144988615A
:101F80004FF4C0611348FEF7DFFE1DE012492068E0
:101F900088420AD10E48C06920F400300C49C8615B
:101FA0000C210C48FEF7D0FE0EE00C492068884258
:101FB0000AD10748C06920F480200549C8614FF460
:101FC00040610748FEF7C0FE10BD00000038014028
:101FD000001002400008014000440040004800405A
:101FE000000C014010B586B004460020029003901A
:101FF000049005904D49206888422FD100BF4C487D
:10200000806940F480404A4988610846806900F44C
:102010008040019000BF00BF00BF0846806940F0CB
:10202000040088610846806900F00400019000BF48
:1020300000BF48150290022003900320059002A9DA
:102040003C48FEF751FF4FF480600290002003905F
:10205000049002A93748FEF747FF65E0364920683B
:1020600088422ED100BF3248C06940F40030304968
:10207000C8610846C06900F40030019000BF00BF8D
:1020800000BF0846806940F0040088610846806906
:1020900000F00400019000BF00BF04200290022065
:1020A00003900320059002A92248FEF71DFF082097
:1020B000029000200390049002A91E48FEF714FF2E
:1020C00032E01E49206888422ED100BF1848C069FE
:1020D00040F480201649C8610846C06900F4802099
:1020E000019000BF00BF00BF0846806940F00800B3
:1020F00088610846806900F00800019000BF00BFB9
:1021000008150290022003900320059002A90C48B4
:10211000FEF7EAFE4FF40060029000200390049066
:1021200002A90748FEF7E0FE06B010BD00380140E6
:1021300000100240000801400044004000480040F8
:10214000000C014070B504460D46164694F83E005A
:10215000202816D105B10EB9012070BD00BF94F83A
:102160003C00012801D10220F7E7012084F83C005F
:1021700000BF0020206332462946204600F028FB9D
:10218000EBE70220E9E7000070B504462CB940F205
:102190008A42054905A004F003FC2546022105F109
:1021A000DC0002F02BFB70BD25CF00086875617262
:1021B0007420213D204E554C4C00000070B5044663
:1021C0002CB940F29942054905A004F0E9FB2546E7
:1021D000012105F1DC0002F011FB70BD3DCF0008CC
:1021E000687561727420213D204E554C4C000000F2
:1021F000F7B50446154694F83D0020283DD10198D6
:1022000000B10DB90120FEBD00BF94F83C000128CB
:1022100001D10220F7E7012084F83C0000BF0198BB
:102220002062A584E58400202064212084F83D00FC
:102230001348616B88621348616BC8621248616B16
:1022400008630020616B486301AE23681A1D316882
:102250002B46606BFEF72AFD6FF040002168086096
:1022600000BF002084F83C0000BF2068406940F0B7
:102270008000216848610020C5E70220C3E7000014
:1022800043250008792500086B24000870B5044632
:102290002CB940F2BB42054905A004F081FB25465C
:1022A00005F1DC0000F0F4FB70BD00006ACF00080F
:1022B000687561727420213D204E554C4C00000021
:1022C0007047000008B508490968C9084FF47A72D8
:1022D000B1FBF2F14143009100BF00BF00994A1EDB
:1022E00000920029F9D108BDF403002010B506F0D2
:1022F0008DF94FF0E020006900F4803008B1FEF75E
:10230000AFFF08F03FFF06F0A3F910BD00B595B090
:1023100028210BA8FEF73AF9142106A8FEF736F992
:1023200018216846FEF732F901200B9000040C904A
:1023300000200D9001200F9002201290C1031391F4
:102340004FF4E01114910BA8FFF72CFA18B12021DB
:1023500013A000F0C5FA0F2006900220079000207D
:1023600008904FF48060099000200A90022106A88E
:10237000FFF7E2F818B12D2109A000F0B1FA122000
:1023800000904FF400400290002005906846FFF74F
:102390003BF818B1342102A000F0A2FA15B000BD3C
:1023A000626F6172645C626F6172642E6300000030
:1023B00010B5002100200022214B5B6803F00C01C6
:1023C00021B1042906D0082928D107E01D4B1E4C55
:1023D000236027E01B4B1C4C236023E0184B5B68F9
:1023E00003F47010164B5B6803F48032022303EB96
:1023F000904022B9154B4343134C23600DE0104B22
:102400005B6803F4003323B1104B43430E4C23604D
:1024100003E00C4B43430C4C236003E0094B0A4C94
:10242000236000BF00BF064B5B68C3F30313084C77
:10243000E15C054B1B68CB40034C236010BD0000E2
:102440000010024000127A00F403002000093D0051
:1024500094D60008704770B505466C6A0020E08588
:10246000E0842046FFF70AFC70BD70B506460025E3
:10247000746A20684069C0F3C01594F83D002128B3
:1024800005D125B10020E084204600F0A7F820689F
:102490004069C0F3801594F83E00222805D125B18B
:1024A0000020E085204600F06EF8206C40F010001F
:1024B00020642046FFF7E2FB70BD70B505466C6AEC
:1024C0002868006800F02000F8B90020E085206846
:1024D000C06820F480702168C8602068406920F0DE
:1024E0000100216848612068406920F040002168AF
:1024F0004861202084F83E00206B012805D1206827
:10250000C06820F010002168C860206B012804D149
:10251000A18D2046FFF792FB02E02046FFF734FE34
:1025200070BD70B505466C6A206B012805D1A08D81
:1025300041082046FFF782FB02E02046FFF73EFEFF
:1025400070BD70B505466C6A2868006800F0200010
:1025500070B90020E0842068406920F08000216884
:1025600048612068C06840F040002168C86002E00F
:102570002046FFF78BFE70BD70B50446656A28469D
:10258000FFF79EFE70BD0168C96821F49071026872
:10259000D1600168496921F0010102685161016B54
:1025A000012905D10168C96821F010010268D160D4
:1025B000202180F83E1000210163704710B50446C9
:1025C0002068C06820F040002168C860202084F89E
:1025D0003D002046FFF75AFE002010BD0168C96883
:1025E00021F0C0010268D160202180F83D107047C1
:1025F000F8B5044694F83E00222869D1A068B0F5E9
:10260000805F0CD1206950B90025A66A2068406817
:10261000C0F308003080A06A801CA06215E0A56AA3
:102620000026A068B0F5805F03D0A06828B92069B3
:1026300018B920684068287004E02068406800F0FD
:102640007F002870A06A401CA062E08D401E80B20E
:10265000E085A8BB2068C06820F020002168C86021
:102660002068C06820F480702168C86020684069D4
:1026700020F0010021684861202084F83E00206B92
:1026800001281ED1002020632068C06820F01000BF
:102690002168C8602068006800F0100010280AD186
:1026A00000BF00200090206800680090206840680B
:1026B000009000BF00BFA18D2046FFF7BFFA03E0E6
:1026C00004E02046FFF760FD0020F8BD0020FCE795
:1026D0000220FAE770B504462168096921F44051E7
:1026E000E2681143226811612269A168114362699D
:1026F00041EA02052168C96841F20C62914329430D
:102700002268D1602168496921F44071A2691143AE
:10271000226851612D4A2168914202D1FEF7E8FFFB
:1027200001E0FEF7D5FF00EBC00101EB001162688C
:102730009200B1FBF2F100EBC00202EB0012636801
:102740009B00B2FBF3F26423B2FBF3F202EBC20391
:1027500003EB0212A1EB8201322202EB011164228F
:10276000B1FBF2F101F0F00100EBC00202EB00124C
:1027700063689B00B2FBF3F26423B2FBF3F201EB5C
:10278000021200EBC00101EB001163689B00B1FB7A
:10279000F3F100EBC00303EB00136668B600B3FB74
:1027A000F6F36426B3FBF6F303EBC30606EB031361
:1027B000A1EB8301322303EB01116423B1FBF3F19D
:1027C00001F00F0111442268916070BD0038014092
:1027D00077B581B0044615460298A062A585002011
:1027E0002064222084F83E001C48A16B88621C48AB
:1027F000A16BC8621B48A16B08630020A16B4863F2
:1028000002AE32682368191D2B46A06BFEF74EFA04
:1028100000BF002000902068006800902068406899
:10282000009000BF00BF00BF002084F83C0000BF44
:102830002068C06840F480702168C86020684069E2
:1028400040F00100216848612068406940F0400084
:1028500021684861002004B070BD0000BB2400085E
:10286000232500086B240008014691F83D0021282B
:1028700028D18868B0F5805F0BD1086948B90A6A29
:102880001088C0F308000B685860086A801C086252
:1028900005E00B6A581C086218780B685860C88CF1
:1028A000401E80B2C88458B90868C06820F0800013
:1028B0000B68D8600868C06840F040000B68D860BA
:1028C000002070470220FCE710B505F09FFE03488A
:1028D00009F0CAFF05F0BCFE10BD0000280500206D
:1028E00004460D4600BF07A005F0C4FE2A46214657
:1028F0000AA005F0BFFE11A005F0BCFE00BF00BF9E
:10290000FEE700001B5B33316D5B452F6472765F21
:10291000636F6D6D6F6E5D20000000004572726F19
:10292000725F48616E646C65722061742066696CC8
:10293000653A2573206E756D3A2564001B5B306D1A
:102940000A00000002480068C0F30220704700003F
:102950000CED00E010B5002804DB0A07130E054A51
:10296000135406E00A07140E034A00F00F031B1F5E
:10297000D45410BD00E400E018ED00E070B5054649
:1029800008F018FB04468CB100BF09A005F072FEE8
:102990002A4621460BA005F06DFE0FA005F06AFE49
:1029A00000BF00220121204608F0D0F870BD0000D1
:1029B0001B5B33336D5B572F7374646C69625D20EE
:1029C000000000007468726561643A2573206578C0
:1029D00069743A25642100001B5B306D0A00000019
:1029E0002DE9F04105460C460026207FFF2805D141
:1029F000284606F079FD617F88420AD1FF272846E4
:102A000001F040FA07463946284606F029FD01261E
:102A100000BF3046BDE8F0812DE9F041044624B9FD
:102A20008E22134913A003F0BBFF184807F0C1FE24
:102A30000746207800F0010038B13946134807F006
:102A4000F5FE6FF01600BDE8F081206820F0010669
:102A500026B1304608F06EFA054601E06FF04305F6
:102A6000012020603946094807F0E0FE2846EAE7E1
:102A7000E4CB0008636F6D706C6574696F6E202124
:102A80003D2052545F4E554C4C0000000000002089
:102A90002DE9F04104462CB940F2A4420A490BA0AA
:102AA00003F07EFFA4F1DC05FDF7DEFB0746D5F859
:102AB000940046683846FDF7DBFB1EB9042120462A
:102AC00005F09CFBBDE8F08159CF00087365726981
:102AD000616C20213D2052545F4E554C4C0000004B
:102AE00010B508F067FA28B14FF0FF31024806F040
:102AF00039F910BD0020FCE7C007002010B50446DE
:102B00002CB14FF42C72054905A003F049FF08F0E1
:102B100051FA10B1064806F00DF810BDBCD30008FC
:102B20006C6576656C203D3D2052545F454F4B00EF
:102B3000C007002010B5044604F1140005F0B9FDEB
:102B4000002010BD70B504460D460748006818B94E
:102B5000204605F0DBF906E02B462246002102481C
:102B6000006804F097FF70BDE40100202DE9F043F8
:102B70008BB005468946174600242DB94FF489725B
:102B80001D491EA003F00CFF2FB940F213121A4981
:102B90001BA003F005FF00E0641C4C4505D2285D36
:102BA000202802D0285D0928F6D124B96FF0FE0054
:102BB0000BB0BDE8F0832146284603F071FB0646C2
:102BC00016B96FF0FE00F3E72822002101A805F0F6
:102BD00075FE01AA4946284603F0A4FC8046B8F1D8
:102BE000000F02D16FF0FE00E2E701A94046B047B6
:102BF00038600020DCE7000023D00008636D64002B
:102C0000726574700000000070B505460C46032D17
:102C100002DA00F0EBF870BD16A06168FDF708FD60
:102C200020B92146284600F039F820E012A061685A
:102C3000FDF7FEFC20B92146284600F05FF816E0BB
:102C40000FA06168FDF7F4FC20B92146284600F08A
:102C50008DF90CE00CA06168FDF7EAFC20B9214673
:102C6000284600F0D1F902E000F0C0F8D3E700BF39
:102C7000D1E700006E756D006D6F646500000000A7
:102C8000726561640000000077726974650000007D
:102C900010B50446204606F0A3FA10BD70B50646EE
:102CA0000C46032E02DA00F0A1F870BDA068FFF711
:102CB000EFFF0546002D06DA06A0A16805F0DAFC54
:102CC00000F094F8F1E72A4609A0A16805F0D2FCCB
:102CD00000BFEAE7506172616D6574657220696ECC
:102CE00076616C6964203A202573210A0000000097
:102CF0002573203A2025640A000000002DE9F041E8
:102D000007460C46042F03DA00F070F8BDE8F081A6
:102D1000A06803F045FB60B9A068FFF7B9FF06465D
:102D2000002E0ADA1BA0A16805F0A4FC00F05EF8F2
:102D3000ECE7A068FDF720FB06461DA0E168FDF763
:102D400077FC08B900251EE01BA0E168FDF770FCC8
:102D500008B9012517E01AA0E168FDF769FC08B978
:102D6000022510E01AA0E168FDF762FC08B903250E
:102D700009E01BA0E168FDF75BFC08B9042502E04F
:102D800000F034F8C2E7E9B2304606F051FA00BF6D
:102D9000BCE70000506172616D6574657220696EF8
:102DA00076616C6964203A202573210A00000000D6
:102DB0006F75747075740000696E70757400000032
:102DC000696E7075745F70756C6C757000000000D2
:102DD000696E7075745F70756C6C646F776E0000EF
:102DE0006F75747075745F6F6400000010B511A08A
:102DF00005F040FC14A005F03DFC204805F03AFC2D
:102E00001FA005F037FC2AA005F034FC34A005F023
:102E100031FC3D4805F02EFC3CA005F02BFC47A002
:102E200005F028FC4DA005F025FC4FA006F0D8F9D0
:102E300010BD000070696E205B6F7074696F6E5D0D
:102E4000204750494F0A000020202020206E756D39
:102E50003A2020202020206765742070696E206E43
:102E6000756D6265722066726F6D2068617264773D
:102E70006172652070696E0A00000000ACD600081F
:102E800020202020202020202020202020202065FD
:102E90002E672E204D5348203E70696E206D6F6462
:102EA00065204750494F206F75747075740A000093
:102EB0002020202020726561643A2020202020728A
:102EC0006561642070696E206C6576656C206F6644
:102ED0002068617264776172652070696E0A000013
:102EE000202020202020202020202020202020659D
:102EF0002E672E204D5348203E70696E207265610A
:102F000064204750494F0A0000D7000820202020A5
:102F10002020202020202020202020652E672E2009
:102F20004D5348203E70696E207772697465204762
:102F300050494F20686967680A000000202020205F
:102F40002068656C703A2020202020746869732006
:102F500068656C70206C6973740A00004750494FB3
:102F600020652E672E3A0000200000002DE9F04178
:102F700006460C46032E03DAFFF738FFBDE8F08162
:102F8000A06803F00DFA60B9A068FFF781FE05465E
:102F9000002D0ADA0DA0A16805F06CFBFFF726FFF3
:102FA000ECE7A068FDF7E8F90546284606F064F965
:102FB000C7B2012F04D129460BA005F05BFB03E04B
:102FC00029460DA005F056FB00BFD7E7506172619E
:102FD0006D6574657220696E76616C6964203A2053
:102FE0002573210A0000000070696E5B25645D2076
:102FF0003D20686967680A0070696E5B25645D2022
:103000003D206C6F770A00002DE9F04107460C4621
:10301000042F03DAFFF7EAFEBDE8F081A06803F0B1
:10302000BFF960B9A068FFF733FE0546002D0ADA44
:1030300015A0A16805F01EFBFFF7D8FEECE7A0681D
:10304000FDF79AF9054617A0E168FDF7F1FA20B1FE
:1030500016A0E168FDF7ECFA08B901260EE014A00D
:10306000E168FDF7E5FA20B112A0E168FDF7E0FAAA
:1030700008B9002602E0FFF7B9FECDE73146284641
:1030800006F01CF900BFC7E7506172616D65746599
:103090007220696E76616C6964203A202573210A7A
:1030A0000000000068696768000000006F6E0000A3
:1030B0006C6F77006F6666002DE9F0410546884623
:1030C00016462F4627B93722084909A003F068FCA5
:1030D00034461CB96FF0FE00BDE8F081227921680A
:1030E000786C0368284698470020F5E790CC0008E4
:1030F00070696E20213D2052545F4E554C4C0000AB
:103100002DE9F0470546894616461F46A846B8F100
:10311000000F04D116220A490AA003F041FC3446EC
:103120000CB1082F02D00020BDE8F0872168D8F844
:10313000440082682846904720713846F4E7000032
:103140007BCC000870696E20213D2052545F4E55A3
:103150004C4C00002DE9F0470546894616461F46AF
:10316000A846B8F1000F04D126220A490AA003F0AC
:1031700017FC34460CB1082F02D00020BDE8F087C0
:1031800022792168D8F84400436828469847384691
:10319000F4E7000085CC000870696E20213D2052C4
:1031A000545F4E554C4C00002DE9F74781B0044662
:1031B000904600BF03F0FEFD48B1984998A005F085
:1031C00059FA40F233529549A0A003F0E9FB00BF41
:1031D00007F0F0FE48B991499DA005F04BFA40F286
:1031E00033528E4999A003F0DBFB00BF05F020FAB3
:1031F00048B18A49A4A005F03DFA40F2335287490C
:1032000092A003F0CDFB00BF00BF00BF2CB940F27D
:1032100036528249A6A003F0C3FB204605F044FFC6
:10322000032805D040F237527C49A64803F0B8FB8A
:1032300007F0C0FE054604F12C0007F0B5FA00BF08
:10324000A148006818B120469F490968884700BF17
:103250000020A862206AA8420FD1A07FFF2803DACD
:10326000A07F401CA077C9E004F12C0007F0D9FA38
:103270006FF0220004B0BDE8F087206AC8B925626B
:10328000FF2060770120A077207FFF280AD0206AE6
:1032900006F02AF9217F884204DD217F4246206A18
:1032A00000F0A8FF04F1240105F1780005F00AFA06
:1032B000A4E0029840B97520A86204F12C0007F040
:1032C000B0FA6FF07400D5E7627A434604F1140156
:1032D000284607F0ADFE07462FB104F12C0007F099
:1032E000A0FA3846C6E7C5F88040684606F06AF896
:1032F000284606F0F9F80646617FB1420BDD667795
:10330000206A06F0F1F8617F884204DD022231462E
:10331000206A00F06FFF009806F0A7F902980028D5
:1033200009DD02AA002105F1480007F0F3FF05F1CD
:10333000480008F063F904F12C0007F072FA06F077
:10334000A7F904F12C0007F02FFAA86A48B9206AFF
:10335000A84252D040F2B15230495CA003F020FBA9
:103360004BE04FF00009206AA84205D14FF4B76244
:103370002A495CA003F014FBAF6A684606F022F805
:10338000206A50B1206A06F0AFF88246284606F05F
:10339000ABF8824501D14FF0010904F1140005F0AA
:1033A000B5F938B96069A0F12C0A504606F09CF8CE
:1033B000607701E0FF206077B9F1000F0DD0206A3F
:1033C00000F060FD0646206A06F08EF8B04204D098
:1033D00002223146206A00F00DFF009806F045F900
:1033E00004F12C0007F01DFA0020C5F88000002F22
:1033F00001DD78423EE738463CE700BF04F12C008F
:1034000007F00FFA00BF3D48006818B120463B495D
:103410000968884700BF00202CE70000E3D10008BE
:1034200046756E6374696F6E5B25735D3A207363D6
:10343000686564756C6572206973206E6F742061B5
:103440007661696C61626C650A0000003000000002
:1034500046756E6374696F6E5B25735D207368617A
:103460006C6C206E6F7420626520757365642062D9
:1034700065666F7265207363686564756C6572203C
:1034800073746172740A000046756E6374696F6EBE
:103490005B25735D207368616C6C206E6F742062B5
:1034A00065207573656420696E204953520A0000D7
:1034B0006D7574657820213D2052545F4E554C4CFB
:1034C00000000000CCDA0008880300206D757465E8
:1034D000782D3E6F776E6572203D3D207468726571
:1034E000616400006D757465782D3E6F776E65724E
:1034F00020213D2074687265616400008C03002007
:103500002DE9F743044617462CB940F235224F49BE
:103510004FA003F045FA204605F0C6FD022805D06D
:1035200040F2362249494E4803F03AFA00BF4D486E
:10353000006818B120464B490968884700BF00BFA2
:1035400003F038FC48B1414947A005F093F840F238
:103550003B223E494FA003F023FA00BF07F02AFDAB
:1035600048B93A494CA005F085F840F23B2237496A
:1035700048A003F015FA00BF05F05AF848B13349E6
:1035800053A005F077F840F23B22304941A003F008
:1035900007FA00BF00BF00BF04F1200007F02CF9BC
:1035A0008046A08B002808DDA08B401EA0834146EA
:1035B00004F1200007F05DF93DE0019840B9414673
:1035C00004F1200007F055F96FF07400BDE8FE83A8
:1035D00007F0F0FC05460B20A862627A3B4604F136
:1035E0001401284607F024FD064636B1414604F191
:1035F000200007F03EF93046E8E70198002809DD91
:1036000001AA002105F1480007F084FE05F14800F9
:1036100007F0F4FF414604F1200007F02AF906F014
:1036200037F8A86A38B1A86A002802DDA86A4042C3
:10363000CCE7A86ACAE700BF2F48006818B1204647
:103640002D490968884700BF0020BFE735D1000831
:1036500073656D20213D2052545F4E554C4C000047
:1036600084DA00088803002046756E6374696F6E03
:103670005B25735D3A207363686564756C657220C1
:103680006973206E6F7420617661696C61626C652C
:103690000A0000003000000046756E6374696F6EAA
:1036A0005B25735D207368616C6C206E6F742062A3
:1036B000652075736564206265666F72652073634B
:1036C000686564756C65722073746172740A0000B9
:1036D00046756E6374696F6E5B25735D20736861F8
:1036E0006C6C206E6F742062652075736564206950
:1036F0006E204953520A00008C0300202DE9F0414E
:1037000005460E46E81D20F0070426F00707A742ED
:1037100005D840F20D320A490AA003F041F93A1BDC
:1037200021460EA006F0B4FF0E49086000BF01223A
:103730000DA10F4805F0CCF900BFBDE8F0810000F5
:10374000C9D30008656E645F616C69676E203E20B6
:10375000626567696E5F616C69676E00686561705C
:103760000000000070020020686561700000000029
:10377000C007002070B5044606480068FCF74EFDFF
:10378000451E054850F83500A0F12C06256030464E
:1037900070BD000094030020740800202DE9F04162
:1037A00004460D4616461F462046FFF7C3F9E78339
:1037B000A583667200BF00BFBDE8F08110B509485F
:1037C000006868B900BF08A004F054FF0A4804F07C
:1037D00051FF0AA004F04EFF00BF0120014908601C
:1037E00010BD0000080000201B5B33336D5B572FBA
:1037F000554152545D20000044D700081B5B306DDA
:103800000A0000002DE9F04704460F46904604B137
:103810002FB940F2FB12434943A003F0C1F804F171
:10382000580006F0D4FF8246E06CC0F38F200028D9
:103830002FD10026256D2DB940F20522394945A02A
:1038400003F0AEF82868012813D001202860606CCE
:10385000006928B940F20A22324943A003F0A0F8D7
:10386000606C012342463946D0F810C02046E0473C
:1038700001E06FF01606514604F1580006F0E4FF2F
:1038800016B94046BDE8F087304606F08BFC0020B4
:10389000F8E7256D0026204604F056F981462DB93B
:1038A00040F21A221F493AA003F07AF8C84501DA1B
:1038B000464600E04E46E8888119E06CC0F38F2050
:1038C000814207D2EA88286881183246384604F0D7
:1038D00071FF1CE0E06CC0F38F20EB88C21A2868EF
:1038E000C118384604F066FFEB8803EB060CE36C66
:1038F000C3F38F23ACEB0302E36CC3F38F233B448E
:10390000B5F806C0A3EB0C00296804F053FF31465C
:10391000204604F01FF9514604F1580006F094FFC8
:103920003046AFE798CD00082873657269616C2056
:10393000213D2052545F4E554C4C292026262028EC
:103940006461746120213D2052545F4E554C4C29D6
:103950000000000072785F646D6120213D205254A8
:103960005F4E554C4C00000073657269616C2D3ED2
:103970006F70732D3E646D615F7472616E736D69FB
:103980007420213D2052545F4E554C4C00000000E5
:1039900072785F6669666F20213D2052545F4E55F4
:1039A0004C4C00002DE9F047044688461646656DEC
:1039B0004FF0FF3332464146281D03F0B5FC074661
:1039C000FFB904F1580006F002FF8146286801287B
:1039D0000FD001202860494604F1580006F034FF5A
:1039E000606C022332464146D0F810C02046E047C2
:1039F00004E0494604F1580006F026FF3046BDE8D1
:103A0000F087384606F0CEFB0020F8E770B5054693
:103A10002C6D2CB940F28D120F4910A002F0C0FF9E
:103A2000A088E188884207D1A06808B9002070BD4D
:103A3000E86CC0F38F20FAE7A088E188884203DDB4
:103A4000A088E188401AF2E7E088A188411AE86C72
:103A5000C0F38F20401AEAE741CD000872785F6614
:103A600069666F20213D2052545F4E554C4C00003A
:103A70002DE9F04705460F4616462DB94FF49572CD
:103A8000214922A002F08CFFB0462C6D2CB94FF4D6
:103A900097721D4922A002F083FF2EE005F1580025
:103AA00006F095FE8246E088A188884207D1A0688A
:103AB00028B9514605F1580006F0C6FE1FE0E1881E
:103AC000206810F80190E088401CE080E188E86CF4
:103AD000C0F38F20814201DB0020E080A068012834
:103AE00001D10020A060514605F1580006F0ACFE5F
:103AF00087F800907F1C761E00BF002ECED100BF3D
:103B0000A8EB0600BDE8F08723CD00087365726955
:103B1000616C20213D2052545F4E554C4C000000FA
:103B200072785F6669666F20213D2052545F4E5562
:103B30004C4C00002DE9F04104460E4615462CB9C8
:103B40004FF4AD721C491D4802F02AFFA846676D6C
:103B50002FB94FF4AF72184919A002F021FF24E0E9
:103B600030780A2810D1207E00F0400060B1606CEF
:103B70000D21826820469047401C28B94FF0FF3144
:103B8000384602F0DBFF10E004E04FF0FF3138462A
:103B900002F0D4FF3178606C826820469047401C68
:103BA0000028F2D0761C6D1E00BF002DD8D1A8EBE6
:103BB0000500BDE8F081000032CD0008203C00087F
:103BC000747820213D2052545F4E554C4C0000002B
:103BD0002DE9F04106460F46144626B9F4220F4956
:103BE0000FA002F0DDFEA04611E0706CC168304607
:103BF00088470546681C00B90BE03D707F1C641EB9
:103C0000307E00F0400010B10A2D00D101E0002C00
:103C1000EBD100BFA8EB0400BDE8F08103CD0008A4
:103C200073657269616C20213D2052545F4E554C82
:103C30004C0000002DE9F04104460E4615462CB913
:103C400040F20B120E490F4802F0AAFE2F4612E076
:103C500030780A2808D1207E00F0400020B1606C46
:103C60000D218268204690473178606C826820463A
:103C70009047761C6D1E002DEAD1781BBDE8F081BF
:103C800013CD0008203C00087CB5684604F017FD01
:103C9000364806F0BFFD06465DE035480068A0F1F5
:103CA000140407F067FA0546A06A281A6FF000416D
:103CB00088424ED200BF2F48006818B120462D49D7
:103CC0000968884700BF204600F01DFB607A00F0BD
:103CD000040018B9607A20F001006072607A40F048
:103CE0000200607204F11401684604F0F9FC3146E8
:103CF0001E4806F0CCFDD4E90710884700BF1E48D7
:103D0000006818B120461C490968884700BF174859
:103D100006F080FD0646607A20F002006072684678
:103D200004F0FCFC00B116E004F1140004F01AFDEC
:103D3000607A00F0040068B1607A00F0010048B1D8
:103D4000607A20F0010060722146094800F0EAFA2A
:103D500000E005E000BF064804F0E0FC00289CD02D
:103D600000BF3146014806F092FD7CBDD003002023
:103D7000C8030020D8030020DC03002004462046AE
:103D8000FEF7FCFD00BFFEE7F8B5054603F084FF33
:103D90000746684605F016FB284605F0ADFB0646CB
:103DA000012E15D016B1284605F018FB05F1480084
:103DB00007F05CFB284605F091FB009805F055FCE8
:103DC000284600F00EF8284606F074FF002403E0B1
:103DD000009805F04AFC0024384603F093FF204683
:103DE000F8BD2DE9F047044600BFFCF73DFA8146D7
:103DF00000BF4F46D4F8800078B1D4F8800005F0B9
:103E000053F9032809D1D4F880902146484604F09C
:103E100085FD0020C4F8800000BFA56F2E6806E075
:103E2000A5F12408404604F085FE35462E6804F1CD
:103E300078008542F4D100BF3846FCF719FA00BF7C
:103E4000BDE8F08738B507F0B5F8044603F024FF65
:103E50000546684605F0B6FA204605F0BFFA04F1BB
:103E6000480007F003FB204605F038FB009805F0FA
:103E7000FCFB204606F01EFF284603F043FF05F03A
:103E800007FC38BD2DE9F0410446002500262046F8
:103E900005F02EFB0746A56F0DE0A5F12406707F07
:103EA000317F814201DD014600E0317F08468742D3
:103EB00000DD07462D6804F178008542EDD13846D3
:103EC000BDE8F0812DE9FC5F04468B4615461E4691
:103ED0000CAF97E880074A465146204605F012FB92
:103EE000A561E6612762C4F824802321D4E9080291
:103EF00004F0E4FCD4E9083C63441A1F124BD4E9F3
:103F0000060104F0BFFA606104F1780040600060CF
:103F100000BF00202834A065E06584F860002060C0
:103F2000E064E066283C102000212346074ACDE9E2
:103F30000010214604F1480007F00EFB00BF00BF4F
:103F40000020BDE8FC9F0000453E000849410008F4
:103F500070B504460D4607262CB940F2463210498A
:103F600010A002F01DFD25B1012D04D0022D06D1B7
:103F700003E004260AE0062608E0072606E040F2F1
:103F8000533207490CA002F00BFD00BF00BF94F8AC
:103F9000340020F00700304384F8340070BD000086
:103FA000D4D5000874687265616420213D205254A4
:103FB0005F4E554C4C00000030000000F1B50098F9
:103FC00010B96FF00400F8BD06F0F4FF04462CB9F8
:103FD00040F26522314932A002F0E2FC204605F0B1
:103FE00063F8012805D040F266222C49314802F0DE
:103FF000D7FC00BF02F0DEFE48B128492EA004F035
:1040000039FB40F26922254936A002F0C9FC00BF05
:1040100006F0D0FF48B9214933A004F02BFB40F251
:1040200069221E492FA002F0BBFC00BF04F000FB78
:1040300048B11A493AA004F01DFB40F26922174921
:1040400028A002F0ADFC00BF00BF00BF0020A062AE
:1040500003F022FE06460021204607F065F80546DB
:10406000BDB96A46002104F1480007F053F904F194
:10407000480007F0C3FA6FF00A00A06205F008FBE1
:10408000304603F03FFEA06A753028B90020A062D8
:1040900002E0304603F036FE284694E79ED500083D
:1040A00074687265616420213D2052545F4E554C06
:1040B0004C000000E8DD000846756E6374696F6EA1
:1040C0005B25735D3A207363686564756C65722067
:1040D0006973206E6F7420617661696C61626C65D2
:1040E0000A0000003000000046756E6374696F6E50
:1040F0005B25735D207368616C6C206E6F74206249
:10410000652075736564206265666F7265207363F0
:10411000686564756C65722073746172740A00005E
:1041200046756E6374696F6E5B25735D207368619D
:104130006C6C206E6F7420626520757365642069F5
:104140006E204953520A000038B505462C4624B962
:104150007D22174917A002F023FC204604F0A4FF9B
:10416000012804D07E221249174802F019FC684643
:1041700005F028F9204605F001FA20B986220C49FD
:1041800012A002F00DFC6FF07400A06204F12C008C
:10419000D0E900215160D0E9001211604060006058
:1041A00000BF204605F0AEF8009805F065FA38BD6E
:1041B0003AD5000874687265616420213D2052542C
:1041C0005F4E554C4C000000E8DD000872745F73D0
:1041D000636865645F7468726561645F69735F7367
:1041E000757370656E6465642874687265616429AE
:1041F000000000002DE9F05F07468B466FF0FE08D7
:1042000000255946384605F02BF980463FE0D7F89F
:104210008050002D39D0284604F046FF032834D1C1
:104220004FF0FF092C4607F12C0004F089FA627A5E
:10423000394604F1140006F07FFB8046B8F1000F08
:1042400022D1264606F1140004F060FA38B97069EC
:10425000A0F12C0A504605F047F9707701E0FF20E5
:10426000707700BF206AFFF70DFE8146206A05F0D7
:104270003BF9484506D0276A4946384605F0F0F82C
:10428000804601E06FF0FE0801E06FF0FE08B8F133
:10429000000F04D1384605F071F90028B7D1BDE808
:1042A000F09F2DE9F04704460E4617469846DDF884
:1042B000209084F80990607A20F001006072E66135
:1042C00027620020A062C4F82480002506E004F1E3
:1042D000140101EBC50004F0F2F96D1C012DF6DBB1
:1042E000BDE8F08770B504460D46204604F016FA86
:1042F00030B92068A0F11406B06A2860002070BDB3
:104300006FF0FE00FBE770B50546002406E005F1FE
:10431000140101EBC40004F025FA641C012CF6DB47
:1043200070BD0000F8B506460D46687A00F0020040
:1043300010B16FF0FE00F8BD2846FFF7E4FF687A81
:1043400020F00100687200BF3348006818B12846A9
:1043500031490968884700BF06F00CFF696A0844C4
:10436000A862009600242AE019E05DF82420116874
:10437000142202EBC402881A826AAB6AD21A00D1F4
:1043800008E0826AAB6AD21A6FF000439A4200D208
:104390000CE000BF5DF8240000684DF824005DF8D3
:1043A000240006EBC40149688842DED100BF2CB16D
:1043B0005DF824000830611C4DF82100641C002CBD
:1043C000D2D016480068401C1449086008460768A7
:1043D00005F11401009804F083F9022412E007F0BB
:1043E000030060B9C4F1010305F1140202EBC3013B
:1043F000C4F101025DF8220004F072F900E003E06C
:10440000BF08641C012CEAD900BF687A40F00100A3
:10441000687200208FE700008C030020E00300207A
:1044200008B5FF2501220321154805F069FA26E0A9
:10443000144806F0EFF9064669461348FFF752FFA5
:10444000054631460F4806F022FA2DB14FF0FF31F4
:104450000B4805F079FB10E006F08CFE044600984E
:10446000001B6FF00041884206D20098001B0090AC
:104470000348009905F068FB00BFFFF705FCD7E78C
:10448000100A0020D0030020C80300200146487A0B
:1044900000F0080008B1024870470248FCE700003D
:1044A000D0030020C00300200246002106E00120C6
:1044B0008840904201D108467047491C2029F6DB0C
:1044C0004FF0FF30F8E7000010B520A004F0D2F85C
:1044D0002148017821A004F0CDF81F48007800F0B1
:1044E000010010B123A004F0C5F81B48007800F0CB
:1044F000020010B122A004F0BDF81748007800F0C7
:10450000040010B121A004F0B5F81348007800F0C1
:10451000080010B121A004F0ADF80F48007800F0B9
:10452000100010B120A004F0A5F80B48007800F0AE
:10453000800030B108480F3001681DA004F09AF8DF
:1045400002E01FA004F096F810BD00006275732011
:104550006661756C743A0A0029ED00E05343425FCE
:10456000434653525F424653523A307825303258D0
:1045700020000000494255534552522000000000DF
:10458000505245434953455252200000494D505224
:10459000454349534552522000000000554E5354A4
:1045A0004B4552522000000053544B4552522000BC
:1045B0005343422D3E424641523A253038580A0074
:1045C0000A00000010B502A004F054F8002010BD4D
:1045D0001B5B324A1B5B4800F8B506460D46022EAF
:1045E0000FD0012E09D106F0E5FC074639461848E0
:1045F00004F040F802F010FAF8BD16A004F03AF802
:10460000FAE7002269466868FBF7C3FE044668685B
:104610000099884204D119A0696804F02BF8EBE7EF
:104620007CB1204604F040FD01280AD127462246ED
:10463000394617A06B6804F01DF8384602F03AFAC4
:1046400003E021461AA004F015F800BFD4E70000EB
:1046500010DB0008706C65617365207573653A2026
:104660006261636B7472616365205B74687265611B
:10467000645F616464726573735D0A00496E76619C
:104680006C696420696E7075743A2025730A0000A5
:104690006261636B747261636520257328307825CD
:1046A0006C78292C2066726F6D2025730A0000003B
:1046B000496E76616C6964207069643A20256C6487
:1046C0000A0000003EB504460D460020029001900D
:1046D00000906A4601A902A804F0CEF809A0029948
:1046E00003F0C8FF0BA0019903F0C4FF0DA00099CF
:1046F00003F0C0FFDDE90120811A0EA003F0BAFF2C
:1047000000203EBD746F74616C202020203A20256B
:10471000640A00007573656420202020203A20255B
:10472000640A00006D6178696D756D20203A20255E
:10473000640A0000617661696C61626C653A2025EB
:10474000640A000070B504460D46022C2DD11D4AA6
:104750002946204601F03AFD0B2822D2DFE800F07E
:1047600021060C120F1518211B1E090001F066FA14
:1047700018E001F077FB15E001F0B6F912E000F067
:104780009DFD0FE001F0DAF80CE000F0A9FE09E071
:1047900001F024F806E000F05BFF03E000F0F0FC1D
:1047A00000E003E000BF002070BD00BF06A003F0E2
:1047B00061FF0BA003F05EFF024801F09BFE0020AA
:1047C000F2E700003C01002055736167653A206CF8
:1047D000697374205B6F7074696F6E735D0A00009B
:1047E0005B6F7074696F6E735D3A0A0070B5044652
:1047F0000D4601F023FA002070BD00002DE9F047BE
:10480000064688462EB94FF4C072254925A002F00D
:10481000C7F8A6F1DC04FBF727FD81460027E06C12
:104820004568B8F1000F06D0B8F1010F13D0B8F108
:10483000020F24D117E090200059A84203D3902002
:104840000059471B06E0F06CC0F38F2190200059FF
:104850000844471B14E090200059A84202D9902038
:104860000059471B0CE090200059A84206D8F06C74
:10487000C0F38F21902000590844471B00BF00BFA0
:1048800000BF3FB190200551032040EA0721304688
:1048900003F0B4FC4846FBF7EBFCBDE8F0870000F2
:1048A000E7CE000873657269616C20213D20525487
:1048B0005F4E554C4C00000010B51748006890F84A
:1048C0002900C0F3400020B90020144908700846B0
:1048D00010BD1348006830B18022114801680F48AC
:1048E000FBF77BFE03E00FA10C48FBF7C1FD0B4873
:1048F000FBF7E2FD801C80280CD20848FBF7DCFDAA
:1049000006493E220A540846FBF7D6FD401C0349DF
:1049100000220A540148DBE7300100209005002006
:10492000340100206D7368200000000038B50020BD
:1049300000901848006820B9A822174917A002F073
:104940002FF814480068D0F8144214B94FF0FF3023
:1049500038BD13E04FF0FF310E48006805F0F4F861
:104960000C480068D0F81402A04207D0094800683B
:10497000D0F8144214B94FF0FF30E9E701236A463A
:10498000991E204602F0D2FF0128E3D19DF80000D5
:10499000DEE7000030010020C8CF00087368656CB6
:1049A0006C20213D2052545F4E554C4C00000000BD
:1049B00070B504460D460748006820B9C72206496D
:1049C00006A001F0EDFF0348006805F065F800203F
:1049D00070BD000030010020D6CF00087368656C00
:1049E0006C20213D2052545F4E554C4C000000007D
:1049F00070B5054600242648006820B9DA2225490A
:104A000025A001F0CDFF284602F09AFE044624B905
:104A1000294626A003F02EFE70BD1D480068D0F880
:104A20001402A04200D1F7E740F24311204602F001
:104A30008FFE50BB16480068D0F8140260B11449CC
:104A40000968D1F8140202F023FE11490968D1F86F
:104A50001402002102F0DEFF512200210C48006800
:104A600000F5DF7003F02AFF002009490968A1F86A
:104A7000100207490968A1F8120205480068C0F849
:104A800014421249204602F0C5FF00BFC4E70000EF
:104A900030010020E3CF00087368656C6C20213D75
:104AA0002052545F4E554C4C0000000066696E73F6
:104AB000683A2063616E206E6F742066696E6420B0
:104AC0006465766963653A2025730A00B149000878
:104AD00010B504460948006820B99422084909A085
:104AE00001F05EFF0548006890F8290064F341007A
:104AF0000249096881F8290010BD0000300100203A
:104B0000B2CF00087368656C6C20213D2052545F61
:104B10004E554C4C00000000024A1060024A1160E1
:104B200070470000280100202C0100207CB50025E2
:104B300017491848FFF7F0FF4FF40671012001F004
:104B4000CBFF154908600846006820B913A003F0A0
:104B500091FD681E7CBD0A2014214FF48053002271
:104B6000CDE90010134914A006F04CF804460023C8
:104B70001A4613A10848006804F02EFF0120FFF731
:104B8000A7FF1CB115B9204606F01AFA0020E1E78C
:104B9000D8DF000848DF0008300100206E6F206D6C
:104BA000656D6F727920666F72207368656C6C0A30
:104BB00000000000C94B0008747368656C6C00004D
:104BC000736872780000000000BFFE48006810B1F2
:104BD000FC480068804700BFFB48006890F8290047
:104BE00020F00100401CF849096881F82900F648C6
:104BF0000068D0F8140238B902F0B8F8054615B1CB
:104C00002846FFF7F5FE00BFFFF756FE054603F006
:104C100031FD5DE2FFF78AFE0446002C00DA57E220
:104C20001B2C05D10120E849096881F828004FE2D2
:104C3000E548006890F8280001280DD15B2C05D1CB
:104C40000220E149096881F8280041E20020DE499C
:104C5000096881F82800BEE0DB48006890F8280069
:104C60000228F8D10020D849096881F82800412C91
:104C700036D1D5480068408D002807DDD24800684D
:104C8000408D401ED0490968488504E00020CE4987
:104C9000096848851CE2CC480068408D00EB800222
:104CA000C94800682E3000EB02115022C648006847
:104CB00000F5DF7003F07EFDC348006800F5DF708B
:104CC000FBF7FAFB80B2C0490968A1F81002BE499F
:104CD0000968A1F81202BC48006806F0F1FFF7E18C
:104CE000422C42D1B8480068418DB7480068808D99
:104CF000401E814207DAB4480068408D401CB2492A
:104D0000096848850CE0B0480068808D38B1AE482D
:104D10000068808D401EAC490968488500E0D7E1F5
:104D2000A9480068408D00EB8002A74800682E303B
:104D300000EB02115022A448006800F5DF7003F078
:104D400039FDA148006800F5DF70FBF7B5FB80B2C4
:104D50009D490968A1F810029B490968A1F812024F
:104D60009948006806F0ACFFB2E1442C11D1964896
:104D70000068B0F8120258B194A003F07BFC92488E
:104D80000068B0F81202401E8F490968A1F81202AB
:104D90009EE1432C1FD18C480068B0F812028A496A
:104DA0000968B1F81012884214DA87480068B0F830
:104DB00012228548006800F5DF70815C84A003F052
:104DC00059FC81480068B0F81202401C7E4909680D
:104DD000A1F812027CE10CB1FF2C00D178E1092C82
:104DE00021D1002503E079A003F044FC6D1C764836
:104DF0000068B0F81202A842F5DC7348006800F5BC
:104E0000DF7006F043FF7048006800F5DF70FBF7C5
:104E100053FB80B26C490968A1F810026A4909681D
:104E2000A1F8120254E17F2C01D0082C74D16648FD
:104E30000068B0F8120200B94AE163480068B0F8AF
:104E40001002401E60490968A1F810025E4800681F
:104E5000B0F81202401E5C490968A1F812025A48D3
:104E60000068B0F8100258490968B1F81212884277
:104E700043DD554B1B68B3F81032534E3668B6F815
:104E800012629A1B504B1B68B3F812325B1C4E4ED9
:104E9000366806F5DF7699194B4B1B68B3F812623A
:104EA000494B1B6803F5DF73F01803F0C3FC0021C6
:104EB00045480068B0F810224348006800F5DF70EC
:104EC000815441480068B0F812223F48006800F55C
:104ED000DF7011183FA003F0CDFB3B480068B0F82D
:104EE000125203E039A003F0C5FB6D1C3648006880
:104EF000B0F81002A842F5DA0CE038A003F0BAFBD3
:104F0000002131480068B0F810222F48006800F5F1
:104F1000DF708154DCE0FFE70D2C01D00A2C2ED18C
:104F20002948006806F0E4FE2748006890F8290048
:104F300000F0010010B12AA003F09CFB2248006899
:104F4000B0F810122048006800F5DF7001F05AF93F
:104F5000FFF7B2FC054603F08DFB512200211A48F1
:104F6000006800F5DF7003F0A9FC0020164909680D
:104F7000A1F8100214490968A1F81202A8E0124829
:104F80000068B0F81002502804DB00200E490968C0
:104F9000A1F810020C480068B0F812020A4909682A
:104FA000B1F8101288425BDA074B1B68B3F8103275
:104FB000054E3668B6F812629A1B034B1B68B3F8AD
:104FC00012620FE0380100203001002008000000CC
:104FD0002563000008257320200800000820080031
:104FE0000A0000003B4B1B6803F5DF73F118394BD7
:104FF0001B68B3F812325B1C364E366806F5DF7656
:10500000981903F017FC33480068B0F812223148B1
:10501000006800F5DF7084542E48006890F829007D
:1050200000F0010058B12B480068B0F8122229485E
:10503000006800F5DF70111827A003F01BFB25485E
:105040000068B0F8125204E0AFF2800003F012FBE7
:105050006D1C20480068B0F81002A842F4DC14E08F
:105060001C480068B0F810221A48006800F5DF708C
:1050700084541848006890F8290000F0010020B11D
:105080002146AFF2B40003F0F5FA0024114800689D
:10509000B0F81002401C0F490968A1F810020D4831
:1050A0000068B0F81202401C0A490968A1F812020F
:1050B00008480068B0F81002502808DB00200549B5
:1050C0000968A1F8100203490968A1F8120200BF9B
:1050D000A0E50000300100202573000010B5144841
:1050E000006800F0020010B112A003F0C3FA1048EB
:1050F000006800F0804088B10D48C01E007808B1FB
:10510000FFF7E2F90A48001F007808B100F0A8FF95
:105110000748801E008808B107F064FC0448006856
:1051200000F0004010B109A003F0A4FA10BD000087
:105130002CED00E06661696C656420766563746FD0
:10514000722066657463680A000000006465627519
:1051500067206576656E740A000000000CE000248C
:1051600005E0064850F8245005B1A847641C042CFB
:10517000F7D302F06DFA00BFF1E70000B00700209E
:105180002DE9F04F91B04FF000090FF2BC0B08234E
:1051900003AA09210BA800F041F90B98051F082666
:1051A0005B46324631462AA003F064FA304601F0ED
:1051B00031FA31A003F05EFA00BF0BA9484600F0B7
:1051C00042F98146002735E003A850F82700A0F1F6
:1051D0000C0805F1100005F001FB109098F808008C
:1051E00020F080009DF83410884205D005F11000B1
:1051F000109905F030FB1CE005F11000109905F046
:105200002AFB44460FF2940A207D1F2807DA207DEE
:10521000244951F8200010B1207D51F820A0A07E33
:10522000234608223146CDE900A01FA003F022FA50
:1052300000BF7F1C0F98B842C6DCB9F1000FBCD18B
:10524000002011B0BDE8F08F6465766963650000E9
:10525000252D2A2E2A732020202020202020207473
:105260007970652020202020202020207265662073
:10527000636F756E740A0000202D2D2D2D2D2D2DA0
:105280002D2D2D2D2D2D2D2D2D2D2D2D2D202D2D5B
:105290002D2D2D2D2D2D2D2D0A000000556E6B6E00
:1052A0006F776E0034D00008252D2A2E2A73202512
:1052B0002D32307320252D38640A00002DE9F04F7F
:1052C00091B04FF000090FF2D80A082303AA042175
:1052D0000BA800F0A3F80B98051F0826534632468A
:1052E000314631A003F0C6F9304601F093F937A0FA
:1052F00003F0C0F900BF0BA9484600F0A4F88146AE
:10530000002742E003A850F82700A0F10C0805F19F
:10531000100005F063FA109098F8080020F0800063
:105320009DF83410884205D005F11000109905F061
:1053300092FA29E005F11000109905F08CFA444624
:1053400004F1140003F0DAF9A8B904F1140003F031
:10535000EDF98346E069234608223146CDE9000B8A
:1053600022A003F087F904F1140005F027FB25A023
:1053700003F080F907E0E0692346082231460090F7
:1053800021A003F077F900BF7F1C0F98B842B9DC69
:10539000B9F1000FAFD1002011B0BDE8F08F0000CF
:1053A0006576656E74000000252D2A2E2A73202054
:1053B0002020202073657420202020737573706571
:1053C0006E64207468726561640A000020202D2DCF
:1053D0002D2D2D2D2D2D2D2D202D2D2D2D2D2D2D0A
:1053E0002D2D2D2D2D2D2D0A00000000252D2A2ECE
:1053F0002A73202030782530387820253033643ADD
:10540000000000000A000000252D2A2E2A7320200B
:1054100030782530387820300A0000002DE9F04738
:1054200004460D4616461F46284603F025FE8146D3
:1054300009F10408C4F8008025726660E760002066
:105440002061BDE8F0872DE9FC5F81460C46002015
:1054500001902061E06808B1207A10B90020BDE811
:10546000FC9F2668371FB9F1000F03D13546012094
:10547000019000E04D4607F1100005F0AFF90090F3
:10548000019880B9A5F10C0B9BF8080020F0800072
:10549000217A884206D007F11000009905F0DBF967
:1054A0000020DCE700BF4FF00008D4F804A00CE0B7
:1054B0002D68B54201D1002508E008F101084AF83D
:1054C000045BE068404500D100E0F1E700BF07F170
:1054D0001000009905F0BFF9C4F810802846BEE717
:1054E0002DE9F04F91B04FF000090FF2EC0A0823BC
:1054F00003AA05210BA8FFF791FF0B98051F0826AB
:1055000053463246314636A003F0B4F8304601F037
:1055100081F83CA003F0AEF800BF0BA94846FFF7A6
:1055200092FF814600274CE003A850F82700A0F125
:105530000C0805F1100005F051F9109098F80800DA
:1055400020F080009DF83410884205D005F110004D
:10555000109905F080F933E005F11000109905F07D
:105560007AF9444604F1140003F0C8F8B8B904F11C
:10557000140003F0DBF88346208C618C234608225C
:10558000CDE9010B0091314625A003F073F804F139
:10559000140005F013FA1AA003F06CF80FE004F100
:1055A000140003F0C3F88346208C618C2346082244
:1055B000CDE9010B009131461FA003F05BF800BF5D
:1055C0007F1C0F98B842AFDCB9F1000FA5D10020C5
:1055D00011B0BDE8F08F00006D61696C626F7800FA
:1055E000252D2A2E2A7320656E7472792073697AAC
:1055F000652073757370656E64207468726561648C
:105600000A000000202D2D2D2D20202D2D2D2D20A8
:105610002D2D2D2D2D2D2D2D2D2D2D2D2D2D0A000A
:10562000252D2A2E2A73202530346420202530345D
:10563000642025643A000000252D2A2E2A73202597
:105640003034642020253034642025640A000000B2
:105650002DE9F04F93B04FF0000B3DA004900823CC
:1056600005AA19460DA8FFF7D9FE0D98061F0827B1
:105670003A46394638A0049B02F0FCFF384600F059
:10568000C9FF3FA002F0F6FF00BF0DA95846FFF783
:10569000DAFE83464FF000084FE005A850F82800D6
:1056A000A0F10C0906F1100005F098F8129099F895
:1056B000080020F080009DF83C10884205D006F1DB
:1056C0001000129905F0C7F835E006F110001299A4
:1056D00005F0C1F84C460025D4F82CA002E06D1C62
:1056E000DAF800A004F12C008245F8D1002D14DD79
:1056F000D4E90920E1692346CDE90205CDE900128C
:105700000822394627A002F0B5FF04F12C0005F06D
:1057100055F923A002F0AEFF0CE0D4E90921E069BD
:105720002346CDE90215CDE900020822394624A01E
:1057300002F0A0FF00BF08F1010811984045ACDC61
:10574000BBF1000FA1D1002013B0BDE8F08F000025
:105750006D656D706F6F6C00252D2A2E2A73206287
:105760006C6F636B20746F74616C2066726565206A
:1057700073757370656E64207468726561640A0085
:10578000202D2D2D2D20202D2D2D2D20202D2D2D8A
:105790002D202D2D2D2D2D2D2D2D2D2D2D2D2D2D46
:1057A0000A000000252D2A2E2A732025303464207B
:1057B00020253034642020253034642025643A00CC
:1057C000252D2A2E2A7320253034642020253034BC
:1057D000642020253034642025640A002DE9F04F30
:1057E00091B04FF000090FF2E40A082303AA062142
:1057F0000BA8FFF713FE0B98051F082653463246E9
:10580000314635A002F036FF304600F003FF3AA0E3
:1058100002F030FF00BF0BA94846FFF714FE814697
:10582000002748E003A850F82700A0F10C0805F174
:10583000100004F0D3FF109098F8080020F08000CA
:105840009DF83410884205D005F11000109905F03C
:1058500002F82FE005F11000109904F0FCFF444617
:1058600004F1140002F04AFFA8B904F1140002F098
:105870005DFF8346A08C234608223146CDE9000B0C
:1058800023A002F0F7FE04F1140005F097F825A01C
:1058900002F0F0FE0DE004F1140002F047FF834631
:1058A000A08C234608223146CDE9000B1EA002F051
:1058B000E1FE00BF7F1C0F98B842B3DCB9F1000FC6
:1058C000A9D1002011B0BDE8F08F00006D736771A1
:1058D0007565756500000000252D2A2E2A73206548
:1058E0006E7472792073757370656E64207468725B
:1058F0006561640A00000000202D2D2D2D20202D33
:105900002D2D2D2D2D2D2D2D2D2D2D2D2D0A000044
:10591000252D2A2E2A732025303464202025643A30
:10592000000000000A000000252D2A2E2A732025E1
:10593000303464202025640A000000002DE9F04F77
:1059400093B04FF000090FF2FC0A082305AA0321C7
:105950000DA8FFF763FD0D98051F08265346324634
:1059600031463AA002F086FE304600F053FE43A0D6
:1059700002F080FE00BF0DA94846FFF764FD814696
:10598000002754E005A850F82700A0F10C0805F105
:10599000100004F023FF129098F8080020F0800017
:1059A0009DF83C10884205D005F11000129904F0D2
:1059B00052FF3BE005F11000129904F04CFF444601
:1059C00004F1140002F09AFED8B904F1140002F0B8
:1059D000ADFE8346607FA17F226ACDE9030BCDE94E
:1059E0000121082023460246314600902DA002F0F6
:1059F00041FE04F1140004F0E1FF32A002F03AFE8F
:105A000013E004F1140002F091FE8346607FA17F51
:105A1000226ACDE9030BCDE9012108202346024685
:105A20003146009028A002F025FE00BF7F1C11988F
:105A3000B842A7DCB9F1000F9DD1002013B0BDE83A
:105A4000F08F00006D75746578000000252D2A2EFA
:105A50002A732020206F776E65722020686F6C6437
:105A6000207072696F726974792073757370656ED6
:105A70006420746872656164200A0000202D2D2D59
:105A80002D2D2D2D2D202D2D2D2D202D2D2D2D2D60
:105A90002D2D2D202D2D2D2D2D2D2D2D2D2D2D2D43
:105AA0002D2D0A00252D2A2E2A7320252D382E2A49
:105AB0007320253034642025386420202530346458
:105AC000200000000A000000252D2A2E2A73202520
:105AD0002D382E2A73202530346420253864202068
